{
  "_format": "hh-sol-artifact-1",
  "contractName": "BNPL",
  "sourceName": "contracts/BNPL.sol",
  "abi": [
    {
      "inputs": [
        {
          "internalType": "address",
          "name": "_treasury",
          "type": "address"
        }
      ],
      "stateMutability": "nonpayable",
      "type": "constructor"
    },
    {
      "anonymous": false,
      "inputs": [
        {
          "indexed": true,
          "internalType": "uint256",
          "name": "agreementId",
          "type": "uint256"
        }
      ],
      "name": "AgreementCompleted",
      "type": "event"
    },
    {
      "anonymous": false,
      "inputs": [
        {
          "indexed": true,
          "internalType": "uint256",
          "name": "agreementId",
          "type": "uint256"
        },
        {
          "indexed": true,
          "internalType": "address",
          "name": "consumer",
          "type": "address"
        },
        {
          "indexed": true,
          "internalType": "address",
          "name": "merchant",
          "type": "address"
        },
        {
          "indexed": false,
          "internalType": "uint256",
          "name": "principalAmount",
          "type": "uint256"
        },
        {
          "indexed": false,
          "internalType": "uint256",
          "name": "interestRate",
          "type": "uint256"
        },
        {
          "indexed": false,
          "internalType": "uint256",
          "name": "totalOwed",
          "type": "uint256"
        },
        {
          "indexed": false,
          "internalType": "uint256",
          "name": "numInstallments",
          "type": "uint256"
        },
        {
          "indexed": false,
          "internalType": "string",
          "name": "tokenId",
          "type": "string"
        }
      ],
      "name": "AgreementCreated",
      "type": "event"
    },
    {
      "anonymous": false,
      "inputs": [
        {
          "indexed": true,
          "internalType": "uint256",
          "name": "agreementId",
          "type": "uint256"
        },
        {
          "indexed": false,
          "internalType": "address",
          "name": "consumer",
          "type": "address"
        },
        {
          "indexed": false,
          "internalType": "address",
          "name": "merchant",
          "type": "address"
        },
        {
          "indexed": false,
          "internalType": "uint256",
          "name": "msgValue",
          "type": "uint256"
        },
        {
          "indexed": false,
          "internalType": "uint256",
          "name": "expectedAmount",
          "type": "uint256"
        },
        {
          "indexed": false,
          "internalType": "uint256",
          "name": "installmentsPaid",
          "type": "uint256"
        },
        {
          "indexed": false,
          "internalType": "bool",
          "name": "isCompleted",
          "type": "bool"
        }
      ],
      "name": "DebugInstallment",
      "type": "event"
    },
    {
      "anonymous": false,
      "inputs": [
        {
          "indexed": true,
          "internalType": "uint256",
          "name": "agreementId",
          "type": "uint256"
        },
        {
          "indexed": false,
          "internalType": "uint256",
          "name": "expectedInstallmentAmount",
          "type": "uint256"
        }
      ],
      "name": "InstallmentAmount",
      "type": "event"
    },
    {
      "anonymous": false,
      "inputs": [
        {
          "indexed": true,
          "internalType": "uint256",
          "name": "agreementId",
          "type": "uint256"
        },
        {
          "indexed": true,
          "internalType": "address",
          "name": "consumer",
          "type": "address"
        },
        {
          "indexed": true,
          "internalType": "address",
          "name": "merchant",
          "type": "address"
        },
        {
          "indexed": false,
          "internalType": "uint256",
          "name": "amount",
          "type": "uint256"
        },
        {
          "indexed": false,
          "internalType": "uint256",
          "name": "installmentNumber",
          "type": "uint256"
        }
      ],
      "name": "InstallmentPaid",
      "type": "event"
    },
    {
      "anonymous": false,
      "inputs": [
        {
          "indexed": true,
          "internalType": "uint256",
          "name": "agreementId",
          "type": "uint256"
        },
        {
          "indexed": true,
          "internalType": "address",
          "name": "from",
          "type": "address"
        },
        {
          "indexed": false,
          "internalType": "uint256",
          "name": "amount",
          "type": "uint256"
        },
        {
          "indexed": false,
          "internalType": "string",
          "name": "tokenId",
          "type": "string"
        }
      ],
      "name": "TokensBurned",
      "type": "event"
    },
    {
      "anonymous": false,
      "inputs": [
        {
          "indexed": true,
          "internalType": "uint256",
          "name": "agreementId",
          "type": "uint256"
        },
        {
          "indexed": true,
          "internalType": "address",
          "name": "to",
          "type": "address"
        },
        {
          "indexed": false,
          "internalType": "uint256",
          "name": "amount",
          "type": "uint256"
        },
        {
          "indexed": false,
          "internalType": "string",
          "name": "tokenId",
          "type": "string"
        }
      ],
      "name": "TokensMinted",
      "type": "event"
    },
    {
      "inputs": [
        {
          "internalType": "uint256",
          "name": "",
          "type": "uint256"
        }
      ],
      "name": "agreements",
      "outputs": [
        {
          "internalType": "address",
          "name": "consumer",
          "type": "address"
        },
        {
          "internalType": "address",
          "name": "merchant",
          "type": "address"
        },
        {
          "internalType": "uint256",
          "name": "principalAmount",
          "type": "uint256"
        },
        {
          "internalType": "uint256",
          "name": "interestRate",
          "type": "uint256"
        },
        {
          "internalType": "uint256",
          "name": "totalOwed",
          "type": "uint256"
        },
        {
          "internalType": "uint256",
          "name": "numInstallments",
          "type": "uint256"
        },
        {
          "internalType": "uint256",
          "name": "installmentsPaid",
          "type": "uint256"
        },
        {
          "internalType": "bool",
          "name": "isCompleted",
          "type": "bool"
        },
        {
          "internalType": "string",
          "name": "tokenId",
          "type": "string"
        }
      ],
      "stateMutability": "view",
      "type": "function"
    },
    {
      "inputs": [
        {
          "internalType": "address",
          "name": "consumer",
          "type": "address"
        },
        {
          "internalType": "address",
          "name": "merchant",
          "type": "address"
        },
        {
          "internalType": "uint256",
          "name": "principalAmount",
          "type": "uint256"
        },
        {
          "internalType": "uint256",
          "name": "interestRate",
          "type": "uint256"
        },
        {
          "internalType": "uint256",
          "name": "numInstallments",
          "type": "uint256"
        },
        {
          "internalType": "string",
          "name": "tokenId",
          "type": "string"
        }
      ],
      "name": "createBNPLAgreement",
      "outputs": [
        {
          "internalType": "uint256",
          "name": "",
          "type": "uint256"
        }
      ],
      "stateMutability": "nonpayable",
      "type": "function"
    },
    {
      "inputs": [
        {
          "internalType": "uint256",
          "name": "agreementId",
          "type": "uint256"
        }
      ],
      "name": "getAgreement",
      "outputs": [
        {
          "components": [
            {
              "internalType": "address",
              "name": "consumer",
              "type": "address"
            },
            {
              "internalType": "address",
              "name": "merchant",
              "type": "address"
            },
            {
              "internalType": "uint256",
              "name": "principalAmount",
              "type": "uint256"
            },
            {
              "internalType": "uint256",
              "name": "interestRate",
              "type": "uint256"
            },
            {
              "internalType": "uint256",
              "name": "totalOwed",
              "type": "uint256"
            },
            {
              "internalType": "uint256",
              "name": "numInstallments",
              "type": "uint256"
            },
            {
              "internalType": "uint256",
              "name": "installmentsPaid",
              "type": "uint256"
            },
            {
              "internalType": "bool",
              "name": "isCompleted",
              "type": "bool"
            },
            {
              "internalType": "string",
              "name": "tokenId",
              "type": "string"
            }
          ],
          "internalType": "struct BNPL.Agreement",
          "name": "",
          "type": "tuple"
        }
      ],
      "stateMutability": "view",
      "type": "function"
    },
    {
      "inputs": [],
      "name": "nextAgreementId",
      "outputs": [
        {
          "internalType": "uint256",
          "name": "",
          "type": "uint256"
        }
      ],
      "stateMutability": "view",
      "type": "function"
    },
    {
      "inputs": [
        {
          "internalType": "uint256",
          "name": "agreementId",
          "type": "uint256"
        }
      ],
      "name": "payInstallment",
      "outputs": [],
      "stateMutability": "nonpayable",
      "type": "function"
    },
    {
      "inputs": [
        {
          "internalType": "uint256",
          "name": "agreementId",
          "type": "uint256"
        },
        {
          "internalType": "address",
          "name": "consumer",
          "type": "address"
        },
        {
          "internalType": "address",
          "name": "merchant",
          "type": "address"
        },
        {
          "internalType": "uint256",
          "name": "amount",
          "type": "uint256"
        },
        {
          "internalType": "string",
          "name": "tokenId",
          "type": "string"
        }
      ],
      "name": "processTokenPayment",
      "outputs": [],
      "stateMutability": "nonpayable",
      "type": "function"
    },
    {
      "inputs": [],
      "name": "treasury",
      "outputs": [
        {
          "internalType": "address",
          "name": "",
          "type": "address"
        }
      ],
      "stateMutability": "view",
      "type": "function"
    },
    {
      "inputs": [
        {
          "internalType": "address",
          "name": "newTreasury",
          "type": "address"
        }
      ],
      "name": "updateTreasury",
      "outputs": [],
      "stateMutability": "nonpayable",
      "type": "function"
    }
  ],
  "bytecode": "0x608060405234801561001057600080fd5b506040516114e13803806114e183398101604081905261002f91610054565b600280546001600160a01b0319166001600160a01b0392909216919091179055610084565b60006020828403121561006657600080fd5b81516001600160a01b038116811461007d57600080fd5b9392505050565b61144e806100936000396000f3fe608060405234801561001057600080fd5b50600436106100885760003560e01c8063bd14de961161005b578063bd14de9614610113578063c6bac78f1461013b578063c9b99dab1461014e578063e2f8a0171461015757600080fd5b806336415b4c1461008d5780634f9f6fe6146100b357806361d027b3146100d35780637f51bb1f146100fe575b600080fd5b6100a061009b366004610e7c565b61016a565b6040519081526020015b60405180910390f35b6100c66100c1366004610ef6565b6104c1565b6040516100aa9190610f55565b6002546100e6906001600160a01b031681565b6040516001600160a01b0390911681526020016100aa565b61011161010c366004610ff5565b610641565b005b610126610121366004610ef6565b6106b9565b6040516100aa99989796959493929190611017565b61011161014936600461107a565b6107a1565b6100a060005481565b610111610165366004610ef6565b610a8e565b60006001600160a01b0387161580159061018c57506001600160a01b03861615155b6101cf5760405162461bcd60e51b815260206004820152600f60248201526e496e76616c6964206164647265737360881b60448201526064015b60405180910390fd5b6000851180156101df5750600083115b61021c5760405162461bcd60e51b815260206004820152600e60248201526d496e76616c696420706172616d7360901b60448201526064016101c6565b6127108411156102625760405162461bcd60e51b8152602060048201526011602482015270092dce8cae4cae6e840e8dede40d0d2ced607b1b60448201526064016101c6565b60008251116102a75760405162461bcd60e51b8152602060048201526011602482015270151bdad95b881251081c995c5d5a5c9959607a1b60448201526064016101c6565b60006127106102b68688611102565b6102c0919061111f565b905060006102ce8288611141565b90506040518061012001604052808a6001600160a01b03168152602001896001600160a01b031681526020018881526020018781526020018281526020018681526020016000815260200160001515815260200185815250600160008054815260200190815260200160002060008201518160000160006101000a8154816001600160a01b0302191690836001600160a01b0316021790555060208201518160010160006101000a8154816001600160a01b0302191690836001600160a01b0316021790555060408201518160020155606082015181600301556080820151816004015560a0820151816005015560c0820151816006015560e08201518160070160006101000a81548160ff0219169083151502179055506101008201518160080190816103fc91906111d4565b50905050876001600160a01b0316896001600160a01b03166000547fc2b4726a36203fae4cfeeb520f255b95f96bed4e636e81914462d1ea14a7b8068a8a868b8b60405161044e959493929190611294565b60405180910390a46000610462868361111f565b90506000547f42ecd6ac35715df5a13f02d4d4d118dc3535003cacb8117b7126c94240c52f388260405161049891815260200190565b60405180910390a26000805490806104af836112ca565b909155509a9950505050505050505050565b61052460405180610120016040528060006001600160a01b0316815260200160006001600160a01b031681526020016000815260200160008152602001600081526020016000815260200160008152602001600015158152602001606081525090565b60008281526001602081815260409283902083516101208101855281546001600160a01b03908116825293820154909316918301919091526002810154928201929092526003820154606082015260048201546080820152600582015460a0820152600682015460c0820152600782015460ff16151560e0820152600882018054919291610100840191906105b890611154565b80601f01602080910402602001604051908101604052809291908181526020018280546105e490611154565b80156106315780601f1061060657610100808354040283529160200191610631565b820191906000526020600020905b81548152906001019060200180831161061457829003601f168201915b5050505050815250509050919050565b6001600160a01b0381166106975760405162461bcd60e51b815260206004820152601860248201527f496e76616c69642074726561737572792061646472657373000000000000000060448201526064016101c6565b600280546001600160a01b0319166001600160a01b0392909216919091179055565b60016020819052600091825260409091208054918101546002820154600383015460048401546005850154600686015460078701546008880180546001600160a01b039a8b169a909816989697959694959394929360ff909216929161071e90611154565b80601f016020809104026020016040519081016040528092919081815260200182805461074a90611154565b80156107975780601f1061076c57610100808354040283529160200191610797565b820191906000526020600020905b81548152906001019060200180831161077a57829003601f168201915b5050505050905089565b6002546001600160a01b031633146107eb5760405162461bcd60e51b815260206004820152600d60248201526c4f6e6c7920747265617375727960981b60448201526064016101c6565b6000858152600160205260409020600781015460ff16156108445760405162461bcd60e51b81526020600482015260136024820152721059dc99595b595b9d0818dbdb5c1b195d1959606a1b60448201526064016101c6565b80546001600160a01b038681169116146108935760405162461bcd60e51b815260206004820152601060248201526f24b73b30b634b21031b7b739bab6b2b960811b60448201526064016101c6565b60018101546001600160a01b038581169116146108e55760405162461bcd60e51b815260206004820152601060248201526f125b9d985b1a59081b595c98da185b9d60821b60448201526064016101c6565b815160208301206040516108fd9060088401906112e3565b6040518091039020146109425760405162461bcd60e51b815260206004820152600d60248201526c24b73b30b634b2103a37b5b2b760991b60448201526064016101c6565b846001600160a01b0316867f9780d1567dbe1bdb26448546297c4603a65383796d3a51b0dc87dd3026436afb858560405161097e929190611359565b60405180910390a3836001600160a01b0316867f17f1617628a78cf810dbd7124b384fdea3433b9d4749b7d0e501cbdabecd22f085856040516109c2929190611359565b60405180910390a36006810180549060006109dc836112ca565b9190505550836001600160a01b0316856001600160a01b0316877f818c89957974f4911b59ff1c1dad19729b8a928454119b6275a6d77d3b5b847a868560060154604051610a34929190918252602082015260400190565b60405180910390a48060050154816006015403610a865760078101805460ff1916600117905560405186907f5a098ab2367201784eb2ad9b7e2f0d916557002385b83ddcc19293f40c4e0ed090600090a25b505050505050565b6000818152600160205260409020600781015460ff1615610ae75760405162461bcd60e51b81526020600482015260136024820152721059dc99595b595b9d0818dbdb5c1b195d1959606a1b60448201526064016101c6565b80546001600160a01b03163314610b305760405162461bcd60e51b815260206004820152600d60248201526c27b7363c9031b7b739bab6b2b960991b60448201526064016101c6565b8060050154816006015410610b725760405162461bcd60e51b8152602060048201526008602482015267105b1b081c185a5960c21b60448201526064016101c6565b600081600501548260040154610b88919061111f565b905060018260050154610b9b9190611372565b826006015403610be65760018260050154610bb69190611372565b82600501548360040154610bca919061111f565b610bd49190611102565b8260040154610be39190611372565b90505b8154600183015460068401546007850154604080516001600160a01b03958616815294909316602085015291830184905260608301849052608083015260ff16151560a082015283907f06955b03d98560442a9e9b1ad6fffc3cae003f9b063386295279e041231a691d9060c00160405180910390a281546040516001600160a01b039091169084907f9780d1567dbe1bdb26448546297c4603a65383796d3a51b0dc87dd3026436afb90610ca19085906008880190611385565b60405180910390a360018201546040516001600160a01b039091169084907f17f1617628a78cf810dbd7124b384fdea3433b9d4749b7d0e501cbdabecd22f090610cf19085906008880190611385565b60405180910390a3600682018054906000610d0b836112ca565b90915550506001820154825460068401546040516001600160a01b0393841693929092169186917f818c89957974f4911b59ff1c1dad19729b8a928454119b6275a6d77d3b5b847a91610d6691878252602082015260400190565b60405180910390a48160050154826006015403610db85760078201805460ff1916600117905560405183907f5a098ab2367201784eb2ad9b7e2f0d916557002385b83ddcc19293f40c4e0ed090600090a25b505050565b80356001600160a01b0381168114610dd457600080fd5b919050565b634e487b7160e01b600052604160045260246000fd5b600082601f830112610e0057600080fd5b813567ffffffffffffffff80821115610e1b57610e1b610dd9565b604051601f8301601f19908116603f01168101908282118183101715610e4357610e43610dd9565b81604052838152866020858801011115610e5c57600080fd5b836020870160208301376000602085830101528094505050505092915050565b60008060008060008060c08789031215610e9557600080fd5b610e9e87610dbd565b9550610eac60208801610dbd565b945060408701359350606087013592506080870135915060a087013567ffffffffffffffff811115610edd57600080fd5b610ee989828a01610def565b9150509295509295509295565b600060208284031215610f0857600080fd5b5035919050565b6000815180845260005b81811015610f3557602081850181015186830182015201610f19565b506000602082860101526020601f19601f83011685010191505092915050565b60208152610f6f6020820183516001600160a01b03169052565b60006020830151610f8b60408401826001600160a01b03169052565b506040830151606083015260608301516080830152608083015160a083015260a083015160c083015260c083015160e083015260e0830151610100610fd38185018315159052565b840151610120848101529050610fed610140840182610f0f565b949350505050565b60006020828403121561100757600080fd5b61101082610dbd565b9392505050565b600061012060018060a01b03808d168452808c166020850152508960408401528860608401528760808401528660a08401528560c084015284151560e08401528061010084015261106a81840185610f0f565b9c9b505050505050505050505050565b600080600080600060a0868803121561109257600080fd5b853594506110a260208701610dbd565b93506110b060408701610dbd565b925060608601359150608086013567ffffffffffffffff8111156110d357600080fd5b6110df88828901610def565b9150509295509295909350565b634e487b7160e01b600052601160045260246000fd5b8082028115828204841417611119576111196110ec565b92915050565b60008261113c57634e487b7160e01b600052601260045260246000fd5b500490565b80820180821115611119576111196110ec565b600181811c9082168061116857607f821691505b60208210810361118857634e487b7160e01b600052602260045260246000fd5b50919050565b601f821115610db857600081815260208120601f850160051c810160208610156111b55750805b601f850160051c820191505b81811015610a86578281556001016111c1565b815167ffffffffffffffff8111156111ee576111ee610dd9565b611202816111fc8454611154565b8461118e565b602080601f831160018114611237576000841561121f5750858301515b600019600386901b1c1916600185901b178555610a86565b600085815260208120601f198616915b8281101561126657888601518255948401946001909101908401611247565b50858210156112845787850151600019600388901b60f8161c191681555b5050505050600190811b01905550565b85815284602082015283604082015282606082015260a0608082015260006112bf60a0830184610f0f565b979650505050505050565b6000600182016112dc576112dc6110ec565b5060010190565b60008083546112f181611154565b60018281168015611309576001811461131e5761134d565b60ff198416875282151583028701945061134d565b8760005260208060002060005b858110156113445781548a82015290840190820161132b565b50505082870194505b50929695505050505050565b828152604060208201526000610fed6040830184610f0f565b81810381811115611119576111196110ec565b828152600060206040818401526000845461139f81611154565b80604087015260606001808416600081146113c157600181146113db57611409565b60ff1985168984015283151560051b890183019550611409565b896000528660002060005b858110156114015781548b82018601529083019088016113e6565b8a0184019650505b5093999850505050505050505056fea264697066735822122071138ac5179ee30b01f44251ae0320c615cc56f684ecf9fa520ad149c3d31ca964736f6c63430008140033",
  "linkReferences": {},
  "deployedLinkReferences": {}
}